:100000000C9463000C948B000C948B000C9489046A
:100010000C9489040C9489040C948B000C948B0030
:100020000C948B000C948B000C948B000C940105A9
:100030000C948B000C948B000C948B000C948B0014
:100040000C94E7030C948B000C9457040C9431042B
:100050000C948B000C948B000C948B000C948B00F4
:100060000C948B000C948B000000000024002700EF
:100070002A0000000008000201000003040700003D
:1000800000000000000000000000230026002900FE
:1000900000000000250028002B00040404040404D0
:1000A0000404020202020202030303030303010227
:1000B00004081020408001020408102001020408F6
:1000C0001020BD053D0911241FBECFEFD8E0DEBFD3
:1000D000CDBF11E0A0E0B1E0E2E7F6E102C005909B
:1000E0000D92AA32B107D9F722E0AAE2B1E001C02D
:1000F0001D92AF38B207E1F710E0C2E6D0E004C0CD
:100100002197FE010E94F009C136D107C9F70E946C
:100110008A060C942C0B0C94000090E0FC01EE5825
:10012000FF4F2491FC01E255FF4F3491FC01E6564C
:10013000FF4FE491EE23C9F0222339F0233001F17F
:10014000A8F4213019F1223029F1F0E0EE0FFF1F61
:10015000E057FF4FA591B4918FB7F894EC916111DE
:1001600026C030953E233C938FBF08952730A9F0D9
:100170002830C9F0243049F7809180008F7D03C07A
:10018000809180008F7780938000DFCF84B58F7758
:1001900084BDDBCF84B58F7DFBCF8091B0008F779E
:1001A0008093B000D2CF8091B0008F7DF9CF3E2BED
:1001B000DACFCF93DF9390E0FC01E255FF4F24911B
:1001C00086569F4FFC0184918823D1F090E0880FE0
:1001D000991FFC01E859FF4FA591B491FC01E0572C
:1001E000FF4FC591D49161110EC09FB7F8948C91C7
:1001F000E22FE0958E238C932881E223E8839FBF32
:10020000DF91CF9108958FB7F894EC91E22BEC93A6
:100210008FBFF6CF3FB7F8948091980190919901E4
:10022000A0919A01B0919B0126B5A89B05C02F3FD4
:1002300019F00196A11DB11D3FBFBA2FA92F982F0C
:100240008827BC01CD01620F711D811D911D42E007
:10025000660F771F881F991F4A95D1F708958F92CF
:100260009F92AF92BF92CF92DF92EF92FF924B019B
:100270005C010E940A016B017C010E940A016C1959
:100280007D098E099F09683E734081059105A8F399
:1002900021E0821A9108A108B10888EEC80E83E017
:1002A000D81EE11CF11C81149104A104B10429F7AA
:1002B000FF90EF90DF90CF90BF90AF909F908F9086
:1002C0000895AF92BF92CF92DF92EF92FF920F9379
:1002D0001F93CF93DF936C017B018B01040F151FDC
:1002E000EB015E01AE18BF08C017D10759F0699144
:1002F000D601ED91FC910190F081E02DC6010995A8
:10030000892B79F7C501DF91CF911F910F91FF9054
:10031000EF90DF90CF90BF90AF900895FC01538D88
:10032000448D252F30E0842F90E0821B930B5417CF
:1003300010F0CF96089501970895FC01918D828D5C
:10034000981761F0A28DAE0FBF2FB11D5D968C91F5
:10035000928D9F5F9F73928F90E008958FEF9FEF34
:100360000895FC01918D828D981731F0828DE80FF0
:10037000F11D858D90E008958FEF9FEF0895FC01AA
:10038000918D228D892F90E0805C9F4F821B910977
:100390008F73992708958CE991E00E94BF0121E0B5
:1003A000892B09F420E0822F089580E090E0892BCA
:1003B00029F00E94CB0181110C9400000895FC01EA
:1003C000A48DA80FB92FB11DA35ABF4F2C91848DB6
:1003D00090E001968F739927848FA689B7892C9313
:1003E000A089B1898C91837080648C93938D848D66
:1003F000981306C00288F389E02D80818F7D808369
:100400000895EF92FF920F931F93CF93DF93EC0128
:1004100081E0888F9B8D8C8D98131AC0E889F989AB
:10042000808185FF15C09FB7F894EE89FF896083AE
:10043000E889F98980818370806480839FBF81E02F
:1004400090E0DF91CF911F910F91FF90EF90089571
:10045000F62E0B8D10E00F5F1F4F0F731127E02E4C
:100460008C8D8E110CC00FB607FCFACFE889F98984
:10047000808185FFF5CFCE010E94DF01F1CFEB8DAA
:10048000EC0FFD2FF11DE35AFF4FF0829FB7F89458
:100490000B8FEA89FB8980818062CFCFCF93DF9376
:1004A000EC01888D8823B9F0AA89BB89E889F9898C
:1004B0008C9185FD03C0808186FD0DC00FB607FCC1
:1004C000F7CF8C9185FFF2CF808185FFEDCFCE01F4
:1004D0000E94DF01E9CFDF91CF91089520916D0156
:1004E00030916E012817390771F490916B0180915A
:1004F0006C01981741F0E0916B01F0E0E55DFE4F73
:10050000808190E008958FEF9FEF08950895EF9216
:10051000FF920F931F93CF93DF93DC015C96ED90D6
:10052000FC905D97E114F10479F481E090E013967A
:100530009C938E93129790E080E0DF91CF911F9172
:100540000F91FF90EF9008955196ED91FC91529785
:1005500050968C915097982F90950FB75E962C914E
:100560005E97122F127021FD6095F894208111235F
:1005700019F1282B2083E7012197F1F728E0462F76
:1005800050E0308160FF1AC0382B3083E70121979B
:10059000F1F7BA0175956795215089F7112381F01C
:1005A0008081892380830FBF5C968D919C910197F8
:1005B000F1F781E090E0C1CF2923DCCF3923E5CFEB
:1005C0009081892BEFCF20916D0130916E0128171A
:1005D000390761F480916C0120916B0190E0805C9F
:1005E0009F4F821B91098F739927089590E080E0B7
:1005F000089520916D0130916E0128173907B9F4E3
:1006000090916B0180916C01981789F0E0916B01DA
:10061000F0E0E55DFE4F808120916B0130E02F5FBF
:100620003F4F2F73332720936B0190E008958FEF96
:100630009FEF089590E080E00895CF92DF92EF92CF
:10064000FF92CF93DF93EC01603282E07807CCF524
:10065000653B710514F064EB70E0898128E830E0B7
:10066000281B310987FD3395220F331F220F331FBB
:100670006901330FEE08FF088A8128E532E0281B64
:10068000310987FD3395220F331F220F331F032EAD
:10069000000C440B550B2C193D094E095F09DB0179
:1006A00077FF02C0B0E0A0E00E94830924EB30E0B5
:1006B00040E050E00E945909C20ED31EE41EF51E10
:1006C000B601E881EC3070F5298188E890E0821B62
:1006D000910927FD9395880F991F880F991F681717
:1006E00079077CF02A8188E592E0821B910927FD39
:1006F0009395880F991F880F991F681779070CF435
:10070000CB010297880F991F4FB7F8942E2F30E036
:10071000F901EE0FFF1FE20FF31FE75CFD4F92831D
:1007200081834FBFDF91CF91FF90EF90DF90CF900B
:1007300008958F929F92AF92BF920F931F93CF9382
:10074000DF93CDB7DEB7A1970FB6F894DEBF0FBE2B
:10075000CDBF19A2423008F44AE08E010F5D1F4F51
:10076000842E912CB12CA12CA50194010E948B09FF
:10077000E62FB901CA01EA3044F5E05DD801EE93F5
:100780008D01232B242B252B79F790E080E0109707
:1007900069F0FD0101900020E9F73197AF014A1B94
:1007A0005B0BBD018CE991E00E946101A1960FB63F
:1007B000F894DEBF0FBECDBFDF91CF911F910F9197
:1007C000BF90AF909F908F900895E95CD7CF1F9214
:1007D0000F920FB60F9211242F933F938F939F93F5
:1007E000AF93BF938091940190919501A091960150
:1007F000B09197013091930123E0230F2D3758F5E5
:100800000196A11DB11D20939301809394019093B3
:100810009501A0939601B0939701809198019091D2
:100820009901A0919A01B0919B010196A11DB11D62
:100830008093980190939901A0939A01B0939B01A2
:10084000BF91AF919F918F913F912F910F900FBECC
:100850000F901F90189526E8230F0296A11DB11D39
:10086000D2CF1F920F920FB60F9211242F933F9366
:100870004F935F936F937F938F939F93AF93BF93A8
:10088000EF93FF938CE991E00E94DF01FF91EF91DC
:10089000BF91AF919F918F917F916F915F914F9198
:1008A0003F912F910F900FBE0F901F9018951F92A0
:1008B0000F920FB60F9211242F938F939F93EF9364
:1008C000FF93E091AC01F091AD018081E091B20124
:1008D000F091B30182FD1BC090818091B5018F5FC3
:1008E0008F732091B601821741F0E091B501F0E0DD
:1008F000E456FE4F958F8093B501FF91EF919F9144
:100900008F912F910F900FBE0F901F90189580819F
:10091000F4CF1F920F920FB60F9211242F933F9393
:100920004F935F936F937F938F939F93AF93BF93F7
:10093000EF93FF93E0916D01F0916E01309749F0D4
:10094000A685B7858585968D91FF14C09C918923D6
:10095000A1F4FF91EF91BF91AF919F918F917F9102
:100960006F915F914F913F912F910F900FBE0F901C
:100970001F9018959C91892361F7A389B4899C9154
:100980008589809589238C93868997890197F1F7CA
:10099000608D718DA685B785558538E020E0CB0147
:1009A0000197F1F7822F90E095958795282F4C912C
:1009B000452309F02068315091F7868D81FD2095FF
:1009C00080916C0190E001968F73992730916B01B3
:1009D000381799F0A0916C01B0E0A55DBE4F2C9343
:1009E00080936C01828D938D0197F1F7A389B4896F
:1009F0008C919589892B8C93ACCF868D8160868F65
:100A0000F1CF1F920F920FB60F9211242F933F93A5
:100A10004F935F936F937F938F939F93AF93BF9306
:100A2000CF93DF93EF93FF9380912A01C0915D02F2
:100A3000D0E087FF24C0109285001092840080913E
:100A40002A018F5F80932A0180912A01082E000CD1
:100A5000990B8C179D0724F480912A018C30C4F1E6
:100A60008091840090918500049680349C4908F41C
:100A70007AC08091840090918500049676C0809120
:100A80002A01082E000C990B8C179D07C4F6E091E3
:100A90002A018E2FEE0F990BFC01EE0FFF1FE80FBE
:100AA000F91FE75CFD4F808186FFC9CFE0912A01E5
:100AB0008E2FEE0F990BFC01EE0FFF1FE80FF91FB1
:100AC000E75CFD4F808160E08F730E948D00B7CF9F
:100AD0002091840030918500E0912A018E2FEE0F45
:100AE000990BFC01EE0FFF1FE80FF91FE75CFD4FAC
:100AF00081819281820F931F909389008093880057
:100B0000E0912A018E2FEE0F990BFC01EE0FFF1FD3
:100B1000E80FF91FE75CFD4F808186FF11C0E0916F
:100B20002A018E2FEE0F990BFC01EE0FFF1FE80F2D
:100B3000F91FE75CFD4F808161E08F730E948D009B
:100B4000FF91EF91DF91CF91BF91AF919F918F91E5
:100B50007F916F915F914F913F912F910F900FBEB9
:100B60000F901F90189580E49CE9909389008093E2
:100B700088008FEF80932A01E3CF10929F0110929B
:100B80009E0188EE93E0A0E0B0E08093A0019093F6
:100B9000A101A093A201B093A30127E031E030931B
:100BA0009D0120939C0125EC30E03093A901209316
:100BB000A80124EC30E03093AB012093AA0120EC93
:100BC00030E03093AD012093AC0121EC30E0309364
:100BD000AF012093AE0122EC30E03093B1012093BD
:100BE000B00126EC30E03093B3012093B2011092B3
:100BF000B5011092B6011092B7011092B80110928F
:100C00007302109272028093740290937502A09303
:100C10007602B093770289E191E09093710280931C
:100C2000700210928702109286021092890210922E
:100C3000880210928B0210928A0210928D021092FA
:100C40008C0260918E026E7F6D7F60938E0266953E
:100C5000617081E068278CE00E948D0061E08CE08B
:100C60000E94D900EAEBF0E0E491E0938002E6EA2A
:100C7000F0E0E491F0E0EE0FFF1FE057FF4F8591A9
:100C80009491909382028093810260E08BE00E94B5
:100C9000D90080918E0281FD04C061E08BE00E944A
:100CA0008D008BE080937C02E9EBF0E0E491E0932F
:100CB0007D02E5EAF0E0E491F0E0EE0FFF1FEA5775
:100CC000FF4F8591949190937F0280937E02EEE591
:100CD000F2E020E732E04FEF68EB7BE080915D02CD
:100CE0008C30B0F491E0980F90935D02808390E097
:100CF000DC01AA0FBB1FA80FB91FA75CBD4F12963E
:100D00007C936E93119733962E173F0739F708950A
:100D10004083F9CF789484B5826084BD84B58160C6
:100D200084BD85B5826085BD85B5816085BD8091B6
:100D30006E00816080936E0010928100809181002E
:100D40008260809381008091810081608093810026
:100D5000809180008160809380008091B1008460E8
:100D60008093B1008091B00081608093B000809149
:100D70007A00846080937A0080917A008260809308
:100D80007A0080917A00816080937A0080917A0065
:100D9000806880937A001092C100E091AC01F091DC
:100DA000AD0182E08083E091A801F091A901108259
:100DB000E091AA01F091AB018FEC80831092B40115
:100DC000E091B001F091B10186E08083E091AE0145
:100DD000F091AF01808180618083E091AE01F0915C
:100DE000AF01808188608083E091AE01F091AF0116
:100DF000808180688083E091AE01F091AF018081B5
:100E00008F7D808310928B0210928A021092890249
:100E10001092880210928702109286028FE190E071
:100E200090938D0280938C0290917C02963108F011
:100E300047C021E030E030938702209386022DE105
:100E400030E030938902209388022DE030E0309327
:100E50008B0220938A022091680084E0983048F049
:100E600031E09E3008F430E081E001C0880F3A950F
:100E7000EAF7822B809368002DE630E0983050F03E
:100E80002BE630E09E3030F02CE630E0963110F06A
:100E900030E020E03093840220938302292F30E059
:100EA000983008F0CDC181E001C0880F9A95EAF72B
:100EB0008093850280918C0290918D020197F1F7C9
:100EC00080918A0290918B02892B49F1E0916D010A
:100ED000F0916E0122E0E037F20709F1309739F026
:100EE000A389B4899C918589809589238C9380916D
:100EF0008E028E7F80938E0210926C0110926B0195
:100F000080E792E090936E0180936D01E0918302FF
:100F1000F0918402808190918502892B808364EF17
:100F200071E080E090E00E942F0165EA80E792E0A6
:100F30000E94870265E580E792E00E94870260EAEE
:100F40007FE080E090E00E942F01CEE5D2E012E049
:100F50000CE082E0F82E61E0812F0E94D9008881A8
:100F60008C3008F04DC061E0812F0E94D90088814B
:100F7000282F30E0F901EE0FFF1FE20FF31FE75CAF
:100F8000FD4F9081907C212F2F73922B908319829B
:100F90001A82602F0E94BC09809FB001112430E0AA
:100FA00020E0AB01420F531FFA01EE0FFF1FE40FC9
:100FB000F51FE75CFD4F908196FD15C02F5F3F4FF9
:100FC0002C30310571F781110EC010928000F09223
:100FD00081001092850010928400B19A80916F0078
:100FE000826080936F00E8818E2F90E0FC01EE0F0D
:100FF000FF1FE80FF91FE75CFD4F8081806480834D
:101000001F5F2396183009F0A6CF61E08DE00E94A3
:10101000D90061E08DE00E948D00992493940FE641
:1010200011E08AE0E82EF12C90E0C92E90E0D92E54
:101030002FB7F8948091940190919501A091960119
:10104000B09197012FBF4091910150919201052ECF
:10105000000C660B770B841B950BA60BB70B8997BF
:10106000A105B10508F443C0C0910101D09102016E
:10107000BE0162597F4F8EE592E00E941D035E0122
:101080008AE5A80EB11CB50181E692E00E941D031D
:10109000B50187E692E00E941D03B5018AE692E061
:1010A0000E941D0380910001882309F4D6C0219776
:1010B000D0930201C09301012091010130910201FE
:1010C000285D3F4F2135310518F0892580930001B7
:1010D0002FB7F8948091940190919501A091960179
:1010E000B09197012FBF909392018093910165EA8F
:1010F00080E792E00E94870261E580E792E00E942B
:10110000870280E792E00E94E302892B09F4A9C0DC
:1011100080E792E00E94F90220918F0130919001C6
:10112000F901E957FE4F80832115310529F480919B
:1011300087018A3A09F095C02F5F3F4F30939001A5
:1011400020938F0128303105E1F610929001109222
:101150008F01809187018A3AA1F680918E018535B1
:1011600081F660918A0170918B0176276727762737
:10117000072E000C880B990B0E94A00A20E030E09B
:1011800048EC52E40E94F609609383017093840155
:101190008093850190938601CFE7D1E02881398142
:1011A0003B832A835E01E2E0AE1AB1080A151B05F3
:1011B00009F055C00E94680A7093700160936F0136
:1011C000629690E080E0F501219131915F01820FFC
:1011D000931FCE17DF07B9F7B7010E94C809EB01CB
:1011E0005B01FAE5AF0EB11CB5018DE692E00E94FD
:1011F0001D03B50184E692E00E941D032E010D2E11
:10120000000C660877084AE0C301B201D7FF0DC0A1
:101210006DE28CE991E00E94010266277727CB01FD
:1012200064197509860997094AE00E94990342E00A
:1012300050E067E271E08CE991E00E94610161CFCA
:101240009E3040F42850310981E001C0880F2A9572
:10125000EAF72ECE2E503109F7CF219629CFE5019E
:101260009DCFC114D10409F4E3CE0E94CB018823A1
:1012700009F4DECE0E940000DBCE89E191E090937C
:1012800071028093700280916D0190916E01805780
:10129000924071F4E0918302F091840290818091F8
:1012A000850280958923808310926E0110926D01D2
:1012B0000895052E97FB1EF400940E94700957FDB7
:1012C00007D00E948B0907FC03D04EF40C947009E0
:1012D00050954095309521953F4F4F4F5F4F089562
:1012E00090958095709561957F4F8F4F9F4F089592
:1012F0000E94AD09A59F900DB49F900DA49F800DF5
:10130000911D11240895B7FF0C9478090E94780963
:10131000821B930B0895A1E21A2EAA1BBB1BFD0191
:101320000DC0AA1FBB1FEE1FFF1FA217B307E407C4
:10133000F50720F0A21BB30BE40BF50B661F771F1C
:10134000881F991F1A9469F76095709580959095FC
:101350009B01AC01BD01CF010895A29FB001B39FD5
:10136000C001A39F700D811D1124911DB29F700DAE
:10137000811D1124911D0895991B79E004C0991FC6
:10138000961708F0961B881F7A95C9F780950895DF
:1013900097FB072E16F4009407D077FD09D00E9422
:1013A000DC0907FC05D03EF4909581959F4F089588
:1013B000709561957F4F0895AA1BBB1B51E107C033
:1013C000AA1FBB1FA617B70710F0A61BB70B881FD5
:1013D000991F5A95A9F780959095BC01CD01089564
:1013E000EE0FFF1F0590F491E02D09940E940A0A68
:1013F0000C94F20A0E94EB0A58F00E94E40A40F0B2
:1014000029F45F3F29F00C94DB0A51110C94260B50
:101410000C94E10A0E94030B68F39923B1F355235E
:1014200091F3951B550BBB27AA27621773078407F7
:1014300038F09F5F5F4F220F331F441FAA1FA9F38D
:1014400035D00E2E3AF0E0E832D091505040E6957B
:10145000001CCAF72BD0FE2F29D0660F771F881FDC
:10146000BB1F261737074807AB07B0E809F0BB0BCF
:10147000802DBF01FF2793585F4F3AF09E3F5105E3
:1014800078F00C94DB0A0C94260B5F3FE4F3983E53
:10149000D4F3869577956795B795F7959F5FC9F7CC
:1014A000880F911D9695879597F90895E1E0660F4D
:1014B000771F881FBB1F621773078407BA0720F0C6
:1014C000621B730B840BBA0BEE1F88F7E09508952F
:1014D0000E946F0A6894B1110C94260B08950E9423
:1014E0000B0B88F09F5798F0B92F9927B751B0F0A0
:1014F000E1F0660F771F881F991F1AF0BA95C9F798
:1015000014C0B13091F00E94250BB1E008950C9405
:10151000250B672F782F8827B85F39F0B93FCCF3B8
:10152000869577956795B395D9F73EF49095809514
:10153000709561957F4F8F4F9F4F0895E89409C034
:1015400097FB3EF490958095709561957F4F8F4FF6
:101550009F4F9923A9F0F92F96E9BB279395F6950C
:10156000879577956795B795F111F8CFFAF4BB0F8A
:1015700011F460FF1BC06F5F7F4F8F4F9F4F16C0EE
:10158000882311F096E911C0772321F09EE8872F78
:10159000762F05C0662371F096E8862F70E060E034
:1015A0002AF09A95660F771F881FDAF7880F9695AD
:1015B000879597F9089597F99F6780E870E060E054
:1015C00008959FEF80EC089500240A9416161706DC
:1015D00018060906089500240A9412161306140624
:1015E00005060895092E0394000C11F4882352F087
:1015F000BB0F40F4BF2B11F460FF04C06F5F7F4F3F
:101600008F4F9F4F089557FD9058440F551F59F025
:101610005F3F71F04795880F97FB991F61F09F3FDF
:1016200079F087950895121613061406551FF2CF08
:101630004695F1DF08C0161617061806991FF1CF58
:1016400086957105610508940895E894BB2766277F
:101650007727CB0197F9089510E0C2E6D0E004C0E7
:10166000FE010E94F0092196C336D107C9F7F8940C
:02167000FFCFAA
:1016720001280000000000010261018E014E02BF3C
:10168200019D01B10100000000870261011A038679
:0A16920002E302F9026E020D0A00E5
:00000001FF
